:100000000C9434000C9446000C9446000C9446006A
:100010000C9446000C9446000C9446000C94460048
:100020000C9446000C9446000C9446000C94460038
:100030000C9446000C944B000C9446000C94460023
:100040000C9446000C9446000C9446000C94460018
:100050000C9446000C9446000C9446000C94460008
:100060000C9446000C94460011241FBECFEFD8E03C
:10007000DEBFCDBF21E0A0E0B1E001C01D92A43001
:10008000B207E1F70E94A3000C94D8040C9400007E
:10009000219A229A08951F920F920FB60F9211245F
:1000A0000F931F932F933F934F935F936F937F9380
:1000B0008F939F93AF93BF93EF93FF93CF93DF9370
:1000C00000D000D0CDB7DEB706E810E0F80180819F
:1000D00091812091880030918900821B930BA0E0D0
:1000E000B0E089839A83AB83BC8361E08AE090E0CF
:1000F0000E94D40080E00E94B400F80180819181C8
:1001000049815A816B817C81841B950B90938B0074
:1001100080938A000F900F900F900F90DF91CF91F6
:10012000FF91EF91BF91AF919F918F917F916F91CF
:100130005F914F913F912F911F910F910F900FBEA3
:100140000F901F90189548E853E160E081E00E940D
:10015000380161E082E30E948302E6E8F0E084E691
:1001600090E091838083FDCF882319F0813051F096
:1001700012C0E0E8F0E080818F7E80838081806221
:1001800080830895E0E8F0E0808180618083808151
:10019000806280830895E0E8F0E080818F7E808334
:1001A0008081806280830895CF92DF92EF92FF92E8
:1001B0006230E9F028F4662341F0613091F03BC0F1
:1001C000633009F1643059F136C0BC0180E090E041
:1001D0000E94980320E030E040E051E40E942604B1
:1001E0002DC0BC0180E090E00E94980327C0BC01B4
:1001F00080E090E00E94980320E030E040E05EE381
:100200000E9426041BC0BC0180E090E00E9498037D
:1002100020E030E040E05DE30E9426040FC0BC0116
:1002200080E090E00E94980329E132E040E053E44E
:100230000E94F00203C060E070E0CB01C0900001BA
:10024000D0900101E0900201F09003010E9462034E
:10025000C61AD70AD0928700C0928600FF90EF900E
:10026000DF90CF90089581E080936F007894089597
:100270000F931F93CF93DF93C82FD62F8A010E942D
:100280004800E2E8F0E080818068808380818064BB
:100290008083DD2319F0D13091F022C0E0E8F0E056
:1002A00080818E7F8083808182608083E1E8F0E0BE
:1002B0008081877F808380818061808321C0E0E8A6
:1002C000F0E0808181608083808182608083E1E8CA
:1002D000F0E08081877F808380818061808310C08F
:1002E000E0E8F0E080818E7F80838081826080837F
:1002F000E1E8F0E08081877F808380818061808376
:10030000C23009F45BC028F4CC2351F0C13079F13C
:10031000CDC0C33009F475C0C43009F495C0C6C05F
:10032000E1E8F0E080818160808380818D7F80833F
:1003300080818B7F8083980140E050E060E079E02D
:100340008DE390E00E94A704E6E8F0E0318320838B
:100350003183208380819181A0E0B0E0809300010F
:1003600090930101A0930201B0930301C5C0E1E89D
:10037000F0E080818E7F80838081826080838081B5
:100380008B7F8083980140E050E060E271EA87E073
:1003900090E00E94A704E6E8F0E0318320833183F7
:1003A000208380819181A0E0B0E080930001909350
:1003B0000101A0930201B09303019EC0E1E8F0E0C7
:1003C00080818160808380818260808380818B7F57
:1003D000808384E294EFB8010E949304E6E8F0E0A1
:1003E000718360837183608380819181A0E0B0E03C
:1003F0008093000190930101A0930201B093030147
:100400007BC0E1E8F0E080818E7F808380818D7FFA
:10041000808380818460808389E09DE3B8010E94AD
:100420009304E6E8F0E071836083718360838081E8
:100430009181A0E0B0E08093000190930101A0932E
:100440000201B093030158C0E1E8F0E080818160CF
:10045000808380818D7F8083808184608083980108
:1004600040E050E060E072E18AE790E00E94A7047B
:10047000DA01C901072E7BE0B695A7959795879578
:100480007A95D1F7702DE6E8F0E09183808391832F
:10049000808380819181A0E0B0E0809300019093FF
:1004A0000101A0930201B093030126C0E1E8F0E04E
:1004B00080818E7F808380818260808380818B7F3A
:1004C0008083980140E050E060E271EA87E090E0CC
:1004D0000E94A704E6E8F0E0318320833183208383
:1004E00080819181A0E0B0E08093000190930101B0
:1004F000A0930201B09303010E943301DF91CF91D9
:100500001F910F910895662319F0613009F144C0DD
:10051000E0E8F0E090819F7B9083908190689083E9
:100520004091860050918700849F9001859F300DF7
:1005300011243695279536952795ABE7B4E10E94AF
:10054000C9049695879590938900809388000895B3
:10055000E0E8F0E0908190649083908190689083CF
:10056000E6E8F0E04081518160817181869F9001D1
:10057000879F300D11243695279536952795ABE743
:10058000B4E10E94C90496958795481B590B509376
:100590008900409388000895E0E8F0E0908190643D
:1005A0009083908190689083E6E8F0E040815181EB
:1005B00060817181869F9001879F300D112436954F
:1005C000279536952795ABE7B4E10E94C904969527
:1005D0008795481B590B50938900409388000895D4
:1005E0000E9404030C94EC030E94E50358F00E945F
:1005F000DE0340F029F45F3F29F00C94D50351113C
:100600000C9420040C94DB030E94FD0368F39923EF
:10061000B1F3552391F3951B550BBB27AA276217FE
:100620007307840738F09F5F5F4F220F331F441F0B
:10063000AA1FA9F335D00E2E3AF0E0E832D091503F
:100640005040E695001CCAF72BD0FE2F29D0660F2C
:10065000771F881FBB1F261737074807AB07B0E86F
:1006600009F0BB0B802DBF01FF2793585F4F3AF075
:100670009E3F510578F00C94D5030C9420045F3F05
:10068000E4F3983ED4F3869577956795B795F795FB
:100690009F5FC9F7880F911D9695879597F90895E3
:1006A000E1E0660F771F881FBB1F6217730784077F
:1006B000BA0720F0621B730B840BBA0BEE1F88F78E
:1006C000E09508950E9469036894B1110C94200488
:1006D00008950E94050488F09F5798F0B92F992734
:1006E000B751B0F0E1F0660F771F881F991F1AF01D
:1006F000BA95C9F714C0B13091F00E941F04B1E05F
:1007000008950C941F04672F782F8827B85F39F05D
:10071000B93FCCF3869577956795B395D9F73EF4B5
:1007200090958095709561957F4F8F4F9F4F08955D
:10073000E89409C097FB3EF490958095709561957B
:100740007F4F8F4F9F4F9923A9F0F92F96E9BB2731
:100750009395F695879577956795B795F111F8CFAD
:10076000FAF4BB0F11F460FF1BC06F5F7F4F8F4F18
:100770009F4F16C0882311F096E911C0772321F00E
:100780009EE8872F762F05C0662371F096E8862FA6
:1007900070E060E02AF09A95660F771F881FDAF7FD
:1007A000880F9695879597F9089597F99F6780E840
:1007B00070E060E008959FEF80EC089500240A94B3
:1007C0001616170618060906089500240A9412162C
:1007D0001306140605060895092E0394000C11F45F
:1007E000882352F0BB0F40F4BF2B11F460FF04C00C
:1007F0006F5F7F4F8F4F9F4F089557FD9058440F65
:10080000551F59F05F3F71F04795880F97FB991F6F
:1008100061F09F3F79F0879508951216130614062C
:10082000551FF2CF4695F1DF08C0161617061806B9
:10083000991FF1CF86957105610508940895E89494
:10084000BB2766277727CB0197F908950E943904C3
:100850000C94EC030E94DE0338F00E94E50320F0C4
:10086000952311F00C94D5030C94DB0311240C9404
:1008700020040E94FD0370F3959FC1F3950F50E093
:10088000551F629FF001729FBB27F00DB11D639F42
:10089000AA27F00DB11DAA1F649F6627B00DA11DE8
:1008A000661F829F2227B00DA11D621F739FB00D8E
:1008B000A11D621F839FA00D611D221F749F3327FE
:1008C000A00D611D231F849F600D211D822F762F97
:1008D0006A2F11249F5750409AF0F1F088234AF074
:1008E000EE0FFF1FBB1F661F771F881F91505040E0
:1008F000A9F79E3F510580F00C94D5030C94200479
:100900005F3FE4F3983ED4F3869577956795B79566
:10091000F795E7959F5FC1F7FE2B880F911D969580
:10092000879597F90895AA1BBB1B51E107C0AA1F21
:10093000BB1FA617B70710F0A61BB70B881F991F80
:100940005A95A9F780959095BC01CD010895A1E233
:100950001A2EAA1BBB1BFD010DC0AA1FBB1FEE1F39
:10096000FF1FA217B307E407F50720F0A21BB30B84
:10097000E40BF50B661F771F881F991F1A9469F700
:1009800060957095809590959B01AC01BD01CF015C
:100990000895A29FB001B39FC001A39F700D811D58
:1009A0001124911DB29F700D811D1124911D089578
:0409B000F894FFCFE9
:00000001FF
